{
  "_format": "hh-sol-artifact-1",
  "contractName": "KYC",
  "sourceName": "contracts/KYC.sol",
  "abi": [
    {
      "inputs": [],
      "stateMutability": "nonpayable",
      "type": "constructor"
    },
    {
      "inputs": [
        {
          "internalType": "string",
          "name": "_bankName",
          "type": "string"
        },
        {
          "internalType": "address",
          "name": "_bankAddress",
          "type": "address"
        },
        {
          "internalType": "string",
          "name": "_regNumber",
          "type": "string"
        }
      ],
      "name": "addBank",
      "outputs": [],
      "stateMutability": "nonpayable",
      "type": "function"
    },
    {
      "inputs": [
        {
          "internalType": "string",
          "name": "_userName",
          "type": "string"
        },
        {
          "internalType": "string",
          "name": "_customerData",
          "type": "string"
        }
      ],
      "name": "addCustomer",
      "outputs": [],
      "stateMutability": "nonpayable",
      "type": "function"
    },
    {
      "inputs": [
        {
          "internalType": "string",
          "name": "_customerName",
          "type": "string"
        },
        {
          "internalType": "string",
          "name": "_customerHash",
          "type": "string"
        }
      ],
      "name": "addRequest",
      "outputs": [],
      "stateMutability": "nonpayable",
      "type": "function"
    },
    {
      "inputs": [
        {
          "internalType": "address",
          "name": "",
          "type": "address"
        }
      ],
      "name": "banks",
      "outputs": [
        {
          "internalType": "string",
          "name": "name",
          "type": "string"
        },
        {
          "internalType": "address",
          "name": "ethAddress",
          "type": "address"
        },
        {
          "internalType": "string",
          "name": "regNumber",
          "type": "string"
        },
        {
          "internalType": "uint256",
          "name": "complaintsReported",
          "type": "uint256"
        },
        {
          "internalType": "uint256",
          "name": "KYC_count",
          "type": "uint256"
        },
        {
          "internalType": "bool",
          "name": "isAllowedToVote",
          "type": "bool"
        }
      ],
      "stateMutability": "view",
      "type": "function"
    },
    {
      "inputs": [
        {
          "internalType": "string",
          "name": "",
          "type": "string"
        }
      ],
      "name": "customers",
      "outputs": [
        {
          "internalType": "string",
          "name": "userName",
          "type": "string"
        },
        {
          "internalType": "string",
          "name": "data",
          "type": "string"
        },
        {
          "internalType": "address",
          "name": "bank",
          "type": "address"
        },
        {
          "internalType": "bool",
          "name": "KycStasus",
          "type": "bool"
        },
        {
          "internalType": "uint256",
          "name": "Downvotes",
          "type": "uint256"
        },
        {
          "internalType": "uint256",
          "name": "Upvotes",
          "type": "uint256"
        }
      ],
      "stateMutability": "view",
      "type": "function"
    },
    {
      "inputs": [
        {
          "internalType": "string",
          "name": "_customerName",
          "type": "string"
        }
      ],
      "name": "downVoteCustomes",
      "outputs": [],
      "stateMutability": "nonpayable",
      "type": "function"
    },
    {
      "inputs": [
        {
          "internalType": "address",
          "name": "_bankAddress",
          "type": "address"
        }
      ],
      "name": "getBankComplaints",
      "outputs": [
        {
          "internalType": "uint256",
          "name": "",
          "type": "uint256"
        }
      ],
      "stateMutability": "view",
      "type": "function"
    },
    {
      "inputs": [
        {
          "internalType": "address",
          "name": "_bankAddress",
          "type": "address"
        },
        {
          "internalType": "bool",
          "name": "_isAllowed",
          "type": "bool"
        }
      ],
      "name": "modifyBankToisAllowedToVote",
      "outputs": [],
      "stateMutability": "nonpayable",
      "type": "function"
    },
    {
      "inputs": [
        {
          "internalType": "string",
          "name": "_userName",
          "type": "string"
        },
        {
          "internalType": "string",
          "name": "_newcustomerData",
          "type": "string"
        }
      ],
      "name": "modifyCustomer",
      "outputs": [],
      "stateMutability": "nonpayable",
      "type": "function"
    },
    {
      "inputs": [
        {
          "internalType": "address",
          "name": "_bankAddress",
          "type": "address"
        }
      ],
      "name": "removeBanks",
      "outputs": [],
      "stateMutability": "nonpayable",
      "type": "function"
    },
    {
      "inputs": [
        {
          "internalType": "string",
          "name": "_customerName",
          "type": "string"
        }
      ],
      "name": "removeRequest",
      "outputs": [],
      "stateMutability": "nonpayable",
      "type": "function"
    },
    {
      "inputs": [
        {
          "internalType": "address",
          "name": "_bankAddress",
          "type": "address"
        },
        {
          "internalType": "string",
          "name": "_bankName",
          "type": "string"
        }
      ],
      "name": "reportBank",
      "outputs": [],
      "stateMutability": "nonpayable",
      "type": "function"
    },
    {
      "inputs": [
        {
          "internalType": "string",
          "name": "",
          "type": "string"
        }
      ],
      "name": "requests",
      "outputs": [
        {
          "internalType": "string",
          "name": "username",
          "type": "string"
        },
        {
          "internalType": "address",
          "name": "bankAddress",
          "type": "address"
        },
        {
          "internalType": "string",
          "name": "customerDataHash",
          "type": "string"
        },
        {
          "internalType": "bool",
          "name": "isAllowed",
          "type": "bool"
        }
      ],
      "stateMutability": "view",
      "type": "function"
    },
    {
      "inputs": [
        {
          "internalType": "string",
          "name": "_customerName",
          "type": "string"
        }
      ],
      "name": "upVoteCustomes",
      "outputs": [],
      "stateMutability": "nonpayable",
      "type": "function"
    },
    {
      "inputs": [
        {
          "internalType": "address",
          "name": "_bankAddress",
          "type": "address"
        }
      ],
      "name": "viewBankDetails",
      "outputs": [
        {
          "internalType": "string",
          "name": "",
          "type": "string"
        },
        {
          "internalType": "address",
          "name": "",
          "type": "address"
        },
        {
          "internalType": "string",
          "name": "",
          "type": "string"
        },
        {
          "internalType": "uint256",
          "name": "",
          "type": "uint256"
        },
        {
          "internalType": "uint256",
          "name": "",
          "type": "uint256"
        },
        {
          "internalType": "bool",
          "name": "",
          "type": "bool"
        }
      ],
      "stateMutability": "view",
      "type": "function"
    },
    {
      "inputs": [
        {
          "internalType": "string",
          "name": "_userName",
          "type": "string"
        }
      ],
      "name": "viewCustomer",
      "outputs": [
        {
          "internalType": "string",
          "name": "",
          "type": "string"
        },
        {
          "internalType": "string",
          "name": "",
          "type": "string"
        },
        {
          "internalType": "address",
          "name": "",
          "type": "address"
        }
      ],
      "stateMutability": "view",
      "type": "function"
    }
  ],
  "bytecode": "0x60806040526000600255600060045534801561001a57600080fd5b50336000806101000a81548173ffffffffffffffffffffffffffffffffffffffff021916908373ffffffffffffffffffffffffffffffffffffffff16021790555061332f8061006a6000396000f3fe608060405234801561001057600080fd5b50600436106101005760003560e01c806388cc8d8d11610097578063b9da4af811610066578063b9da4af8146102e1578063ccfa8e71146102fd578063f72860ca14610319578063f8dc14a61461033557610100565b806388cc8d8d1461023f5780638ee5accd14610274578063a82c98d014610290578063b2385204146102c557610100565b8063603658ab116100d3578063603658ab1461019f578063692d51d2146101bb5780636cba00e6146101ee57806380c3b8c21461020a57610100565b8063107925bb146101055780631ce639be146101375780633190abc0146101535780635ec2a7f21461016f575b600080fd5b61011f600480360381019061011a91906125ee565b610351565b60405161012e939291906126f7565b60405180910390f35b610151600480360381019061014c9190612768565b6105ae565b005b61016d60048036038101906101689190612795565b61079e565b005b61018960048036038101906101849190612768565b610a7e565b6040516101969190612826565b60405180910390f35b6101b960048036038101906101b49190612879565b610aca565b005b6101d560048036038101906101d091906125ee565b610c1b565b6040516101e594939291906128c8565b60405180910390f35b610208600480360381019061020391906125ee565b610d9e565b005b610224600480360381019061021f9190612768565b610fbb565b6040516102369695949392919061291b565b60405180910390f35b61025960048036038101906102549190612768565b611134565b60405161026b9695949392919061291b565b60405180910390f35b61028e600480360381019061028991906125ee565b6114f9565b005b6102aa60048036038101906102a591906125ee565b611776565b6040516102bc9695949392919061298a565b60405180910390f35b6102df60048036038101906102da91906129f9565b611905565b005b6102fb60048036038101906102f69190612795565b611b26565b005b61031760048036038101906103129190612a55565b611e15565b005b610333600480360381019061032e9190612795565b612054565b005b61034f600480360381019061034a91906125ee565b612207565b005b60608060008073ffffffffffffffffffffffffffffffffffffffff1660018560405161037d9190612b1c565b908152602001604051809103902060020160009054906101000a900473ffffffffffffffffffffffffffffffffffffffff1673ffffffffffffffffffffffffffffffffffffffff1603610405576040517f08c379a00000000000000000000000000000000000000000000000000000000081526004016103fc90612ba5565b60405180910390fd5b6001846040516104159190612b1c565b90815260200160405180910390206000016001856040516104369190612b1c565b90815260200160405180910390206001016001866040516104579190612b1c565b908152602001604051809103902060020160009054906101000a900473ffffffffffffffffffffffffffffffffffffffff1682805461049590612bf4565b80601f01602080910402602001604051908101604052809291908181526020018280546104c190612bf4565b801561050e5780601f106104e35761010080835404028352916020019161050e565b820191906000526020600020905b8154815290600101906020018083116104f157829003601f168201915b5050505050925081805461052190612bf4565b80601f016020809104026020016040519081016040528092919081815260200182805461054d90612bf4565b801561059a5780601f1061056f5761010080835404028352916020019161059a565b820191906000526020600020905b81548152906001019060200180831161057d57829003601f168201915b505050505091509250925092509193909250565b60008054906101000a900473ffffffffffffffffffffffffffffffffffffffff1673ffffffffffffffffffffffffffffffffffffffff163373ffffffffffffffffffffffffffffffffffffffff161461060657600080fd5b8073ffffffffffffffffffffffffffffffffffffffff16600360008373ffffffffffffffffffffffffffffffffffffffff1673ffffffffffffffffffffffffffffffffffffffff16815260200190815260200160002060010160009054906101000a900473ffffffffffffffffffffffffffffffffffffffff1673ffffffffffffffffffffffffffffffffffffffff16146106d6576040517f08c379a00000000000000000000000000000000000000000000000000000000081526004016106cd90612c71565b60405180910390fd5b600360008273ffffffffffffffffffffffffffffffffffffffff1673ffffffffffffffffffffffffffffffffffffffff168152602001908152602001600020600080820160006107269190612437565b6001820160006101000a81549073ffffffffffffffffffffffffffffffffffffffff021916905560028201600061075d9190612437565b600382016000905560048201600090556005820160006101000a81549060ff021916905550506004600081548092919061079690612cc0565b919050555050565b600360003373ffffffffffffffffffffffffffffffffffffffff1673ffffffffffffffffffffffffffffffffffffffff16815260200190815260200160002060010160009054906101000a900473ffffffffffffffffffffffffffffffffffffffff1673ffffffffffffffffffffffffffffffffffffffff163373ffffffffffffffffffffffffffffffffffffffff161461086e576040517f08c379a000000000000000000000000000000000000000000000000000000000815260040161086590612d35565b60405180910390fd5b8060405160200161087f9190612d55565b604051602081830303815290604052805190602001206001836040516108a59190612b1c565b90815260200160405180910390206001016040516020016108c69190612e10565b604051602081830303815290604052805190602001201461091c576040517f08c379a000000000000000000000000000000000000000000000000000000000815260040161091390612eca565b60405180910390fd5b8160018360405161092d9190612b1c565b9081526020016040518091039020600001908161094a9190613081565b508060018360405161095c9190612b1c565b908152602001604051809103902060010190816109799190613081565b503360018360405161098b9190612b1c565b908152602001604051809103902060020160006101000a81548173ffffffffffffffffffffffffffffffffffffffff021916908373ffffffffffffffffffffffffffffffffffffffff16021790555060006001836040516109ec9190612b1c565b908152602001604051809103902060020160146101000a81548160ff0219169083151502179055506000600183604051610a269190612b1c565b9081526020016040518091039020600301819055506000600183604051610a4d9190612b1c565b90815260200160405180910390206004018190555060026000815480929190610a7590613153565b91905055505050565b6000600360008373ffffffffffffffffffffffffffffffffffffffff1673ffffffffffffffffffffffffffffffffffffffff168152602001908152602001600020600301549050919050565b60008054906101000a900473ffffffffffffffffffffffffffffffffffffffff1673ffffffffffffffffffffffffffffffffffffffff163373ffffffffffffffffffffffffffffffffffffffff1614610b2257600080fd5b600073ffffffffffffffffffffffffffffffffffffffff16600360008473ffffffffffffffffffffffffffffffffffffffff1673ffffffffffffffffffffffffffffffffffffffff16815260200190815260200160002060010160009054906101000a900473ffffffffffffffffffffffffffffffffffffffff1673ffffffffffffffffffffffffffffffffffffffff1603610bbd57600080fd5b80600360008473ffffffffffffffffffffffffffffffffffffffff1673ffffffffffffffffffffffffffffffffffffffff16815260200190815260200160002060050160006101000a81548160ff0219169083151502179055505050565b600581805160208101820180518482526020830160208501208183528095505050505050600091509050806000018054610c5490612bf4565b80601f0160208091040260200160405190810160405280929190818152602001828054610c8090612bf4565b8015610ccd5780601f10610ca257610100808354040283529160200191610ccd565b820191906000526020600020905b815481529060010190602001808311610cb057829003601f168201915b5050505050908060010160009054906101000a900473ffffffffffffffffffffffffffffffffffffffff1690806002018054610d0890612bf4565b80601f0160208091040260200160405190810160405280929190818152602001828054610d3490612bf4565b8015610d815780601f10610d5657610100808354040283529160200191610d81565b820191906000526020600020905b815481529060010190602001808311610d6457829003601f168201915b5050505050908060030160009054906101000a900460ff16905084565b600360003373ffffffffffffffffffffffffffffffffffffffff1673ffffffffffffffffffffffffffffffffffffffff16815260200190815260200160002060010160009054906101000a900473ffffffffffffffffffffffffffffffffffffffff1673ffffffffffffffffffffffffffffffffffffffff163373ffffffffffffffffffffffffffffffffffffffff1614610e6e576040517f08c379a0000000000000000000000000000000000000000000000000000000008152600401610e6590612d35565b60405180910390fd5b600181604051610e7e9190612b1c565b9081526020016040518091039020600101604051602001610e9f9190612e10565b60405160208183030381529060405280519060200120600582604051610ec59190612b1c565b9081526020016040518091039020600201604051602001610ee69190612e10565b6040516020818303038152906040528051906020012014610f3c576040517f08c379a0000000000000000000000000000000000000000000000000000000008152600401610f3390612ba5565b60405180910390fd5b600581604051610f4c9190612b1c565b908152602001604051809103902060008082016000610f6b9190612437565b6001820160006101000a81549073ffffffffffffffffffffffffffffffffffffffff0219169055600282016000610fa29190612437565b6003820160006101000a81549060ff0219169055505050565b6003602052806000526040600020600091509050806000018054610fde90612bf4565b80601f016020809104026020016040519081016040528092919081815260200182805461100a90612bf4565b80156110575780601f1061102c57610100808354040283529160200191611057565b820191906000526020600020905b81548152906001019060200180831161103a57829003601f168201915b5050505050908060010160009054906101000a900473ffffffffffffffffffffffffffffffffffffffff169080600201805461109290612bf4565b80601f01602080910402602001604051908101604052809291908181526020018280546110be90612bf4565b801561110b5780601f106110e05761010080835404028352916020019161110b565b820191906000526020600020905b8154815290600101906020018083116110ee57829003601f168201915b5050505050908060030154908060040154908060050160009054906101000a900460ff16905086565b60606000606060008060008073ffffffffffffffffffffffffffffffffffffffff16600360008973ffffffffffffffffffffffffffffffffffffffff1673ffffffffffffffffffffffffffffffffffffffff16815260200190815260200160002060010160009054906101000a900473ffffffffffffffffffffffffffffffffffffffff1673ffffffffffffffffffffffffffffffffffffffff160361120f576040517f08c379a00000000000000000000000000000000000000000000000000000000081526004016112069061320d565b60405180910390fd5b600360008873ffffffffffffffffffffffffffffffffffffffff1673ffffffffffffffffffffffffffffffffffffffff168152602001908152602001600020600001600360008973ffffffffffffffffffffffffffffffffffffffff1673ffffffffffffffffffffffffffffffffffffffff16815260200190815260200160002060010160009054906101000a900473ffffffffffffffffffffffffffffffffffffffff16600360008a73ffffffffffffffffffffffffffffffffffffffff1673ffffffffffffffffffffffffffffffffffffffff168152602001908152602001600020600201600360008b73ffffffffffffffffffffffffffffffffffffffff1673ffffffffffffffffffffffffffffffffffffffff16815260200190815260200160002060030154600360008c73ffffffffffffffffffffffffffffffffffffffff1673ffffffffffffffffffffffffffffffffffffffff16815260200190815260200160002060040154600360008d73ffffffffffffffffffffffffffffffffffffffff1673ffffffffffffffffffffffffffffffffffffffff16815260200190815260200160002060050160009054906101000a900460ff168580546113d890612bf4565b80601f016020809104026020016040519081016040528092919081815260200182805461140490612bf4565b80156114515780601f1061142657610100808354040283529160200191611451565b820191906000526020600020905b81548152906001019060200180831161143457829003601f168201915b5050505050955083805461146490612bf4565b80601f016020809104026020016040519081016040528092919081815260200182805461149090612bf4565b80156114dd5780601f106114b2576101008083540402835291602001916114dd565b820191906000526020600020905b8154815290600101906020018083116114c057829003601f168201915b5050505050935095509550955095509550955091939550919395565b600360003373ffffffffffffffffffffffffffffffffffffffff1673ffffffffffffffffffffffffffffffffffffffff16815260200190815260200160002060010160009054906101000a900473ffffffffffffffffffffffffffffffffffffffff1673ffffffffffffffffffffffffffffffffffffffff163373ffffffffffffffffffffffffffffffffffffffff16146115c9576040517f08c379a00000000000000000000000000000000000000000000000000000000081526004016115c090612d35565b60405180910390fd5b600073ffffffffffffffffffffffffffffffffffffffff166001826040516115f19190612b1c565b908152602001604051809103902060020160009054906101000a900473ffffffffffffffffffffffffffffffffffffffff1673ffffffffffffffffffffffffffffffffffffffff1603611679576040517f08c379a000000000000000000000000000000000000000000000000000000000815260040161167090613279565b60405180910390fd5b6001816040516116899190612b1c565b908152602001604051809103902060040160008154809291906116ab90613153565b91905055506001816040516116c09190612b1c565b9081526020016040518091039020600301546001826040516116e29190612b1c565b90815260200160405180910390206004015411801561172f5750600360045461170b91906132c8565b60018260405161171b9190612b1c565b908152602001604051809103902060030154105b1561177257600180826040516117459190612b1c565b908152602001604051809103902060020160146101000a81548160ff021916908315150217905550611773565b5b50565b6001818051602081018201805184825260208301602085012081835280955050505050506000915090508060000180546117af90612bf4565b80601f01602080910402602001604051908101604052809291908181526020018280546117db90612bf4565b80156118285780601f106117fd57610100808354040283529160200191611828565b820191906000526020600020905b81548152906001019060200180831161180b57829003601f168201915b50505050509080600101805461183d90612bf4565b80601f016020809104026020016040519081016040528092919081815260200182805461186990612bf4565b80156118b65780601f1061188b576101008083540402835291602001916118b6565b820191906000526020600020905b81548152906001019060200180831161189957829003601f168201915b5050505050908060020160009054906101000a900473ffffffffffffffffffffffffffffffffffffffff16908060020160149054906101000a900460ff16908060030154908060040154905086565b600360003373ffffffffffffffffffffffffffffffffffffffff1673ffffffffffffffffffffffffffffffffffffffff16815260200190815260200160002060010160009054906101000a900473ffffffffffffffffffffffffffffffffffffffff1673ffffffffffffffffffffffffffffffffffffffff163373ffffffffffffffffffffffffffffffffffffffff16146119d5576040517f08c379a00000000000000000000000000000000000000000000000000000000081526004016119cc90612d35565b60405180910390fd5b806040516020016119e69190612d55565b60405160208183030381529060405280519060200120600360008473ffffffffffffffffffffffffffffffffffffffff1673ffffffffffffffffffffffffffffffffffffffff168152602001908152602001600020600001604051602001611a4e9190612e10565b6040516020818303038152906040528051906020012003611a6e57600080fd5b6003600454611a7d91906132c8565b600360008473ffffffffffffffffffffffffffffffffffffffff1673ffffffffffffffffffffffffffffffffffffffff168152602001908152602001600020600301541115611b22576000600360008473ffffffffffffffffffffffffffffffffffffffff1673ffffffffffffffffffffffffffffffffffffffff16815260200190815260200160002060050160006101000a81548160ff0219169083151502179055505b5050565b600360003373ffffffffffffffffffffffffffffffffffffffff1673ffffffffffffffffffffffffffffffffffffffff16815260200190815260200160002060010160009054906101000a900473ffffffffffffffffffffffffffffffffffffffff1673ffffffffffffffffffffffffffffffffffffffff163373ffffffffffffffffffffffffffffffffffffffff1614611bf6576040517f08c379a0000000000000000000000000000000000000000000000000000000008152600401611bed90612d35565b60405180910390fd5b6000600183604051611c089190612b1c565b90815260200160405180910390206000018054611c2490612bf4565b80601f0160208091040260200160405190810160405280929190818152602001828054611c5090612bf4565b8015611c9d5780601f10611c7257610100808354040283529160200191611c9d565b820191906000526020600020905b815481529060010190602001808311611c8057829003601f168201915b50505050509050600033905082604051602001611cba9190612d55565b60405160208183030381529060405280519060200120600183604051611ce09190612b1c565b9081526020016040518091039020600101604051602001611d019190612e10565b6040516020818303038152906040528051906020012003611d2157600080fd5b60405180608001604052808581526020018273ffffffffffffffffffffffffffffffffffffffff16815260200184815260200160011515815250600585604051611d6b9190612b1c565b90815260200160405180910390206000820151816000019081611d8e9190613081565b5060208201518160010160006101000a81548173ffffffffffffffffffffffffffffffffffffffff021916908373ffffffffffffffffffffffffffffffffffffffff1602179055506040820151816002019081611deb9190613081565b5060608201518160030160006101000a81548160ff02191690831515021790555090505050505050565b60008054906101000a900473ffffffffffffffffffffffffffffffffffffffff1673ffffffffffffffffffffffffffffffffffffffff163373ffffffffffffffffffffffffffffffffffffffff1614611e6d57600080fd5b80604051602001611e7e9190612d55565b60405160208183030381529060405280519060200120600360008473ffffffffffffffffffffffffffffffffffffffff1673ffffffffffffffffffffffffffffffffffffffff168152602001908152602001600020600201604051602001611ee69190612e10565b6040516020818303038152906040528051906020012003611f0657600080fd5b6040518060c001604052808481526020018373ffffffffffffffffffffffffffffffffffffffff168152602001828152602001600081526020016000815260200160011515815250600360008473ffffffffffffffffffffffffffffffffffffffff1673ffffffffffffffffffffffffffffffffffffffff1681526020019081526020016000206000820151816000019081611fa29190613081565b5060208201518160010160006101000a81548173ffffffffffffffffffffffffffffffffffffffff021916908373ffffffffffffffffffffffffffffffffffffffff1602179055506040820151816002019081611fff9190613081565b50606082015181600301556080820151816004015560a08201518160050160006101000a81548160ff0219169083151502179055509050506004600081548092919061204a90613153565b9190505550505050565b600360003373ffffffffffffffffffffffffffffffffffffffff1673ffffffffffffffffffffffffffffffffffffffff16815260200190815260200160002060010160009054906101000a900473ffffffffffffffffffffffffffffffffffffffff1673ffffffffffffffffffffffffffffffffffffffff163373ffffffffffffffffffffffffffffffffffffffff1614612124576040517f08c379a000000000000000000000000000000000000000000000000000000000815260040161211b90612d35565b60405180910390fd5b600073ffffffffffffffffffffffffffffffffffffffff1660018360405161214c9190612b1c565b908152602001604051809103902060020160009054906101000a900473ffffffffffffffffffffffffffffffffffffffff1673ffffffffffffffffffffffffffffffffffffffff16036121d4576040517f08c379a00000000000000000000000000000000000000000000000000000000081526004016121cb90612ba5565b60405180910390fd5b806001836040516121e59190612b1c565b908152602001604051809103902060010190816122029190613081565b505050565b600360003373ffffffffffffffffffffffffffffffffffffffff1673ffffffffffffffffffffffffffffffffffffffff16815260200190815260200160002060010160009054906101000a900473ffffffffffffffffffffffffffffffffffffffff1673ffffffffffffffffffffffffffffffffffffffff163373ffffffffffffffffffffffffffffffffffffffff16146122d7576040517f08c379a00000000000000000000000000000000000000000000000000000000081526004016122ce90612d35565b60405180910390fd5b600073ffffffffffffffffffffffffffffffffffffffff166001826040516122ff9190612b1c565b908152602001604051809103902060020160009054906101000a900473ffffffffffffffffffffffffffffffffffffffff1673ffffffffffffffffffffffffffffffffffffffff1603612387576040517f08c379a000000000000000000000000000000000000000000000000000000000815260040161237e90613279565b60405180910390fd5b6001816040516123979190612b1c565b908152602001604051809103902060030160008154809291906123b990613153565b919050555060036004546123cd91906132c8565b6001826040516123dd9190612b1c565b908152602001604051809103902060030154106124335760006001826040516124069190612b1c565b908152602001604051809103902060020160146101000a81548160ff021916908315150217905550612434565b5b50565b50805461244390612bf4565b6000825580601f106124555750612474565b601f0160209004906000526020600020908101906124739190612477565b5b50565b5b80821115612490576000816000905550600101612478565b5090565b6000604051905090565b600080fd5b600080fd5b600080fd5b600080fd5b6000601f19601f8301169050919050565b7f4e487b7100000000000000000000000000000000000000000000000000000000600052604160045260246000fd5b6124fb826124b2565b810181811067ffffffffffffffff8211171561251a576125196124c3565b5b80604052505050565b600061252d612494565b905061253982826124f2565b919050565b600067ffffffffffffffff821115612559576125586124c3565b5b612562826124b2565b9050602081019050919050565b82818337600083830152505050565b600061259161258c8461253e565b612523565b9050828152602081018484840111156125ad576125ac6124ad565b5b6125b884828561256f565b509392505050565b600082601f8301126125d5576125d46124a8565b5b81356125e584826020860161257e565b91505092915050565b6000602082840312156126045761260361249e565b5b600082013567ffffffffffffffff811115612622576126216124a3565b5b61262e848285016125c0565b91505092915050565b600081519050919050565b600082825260208201905092915050565b60005b83811015612671578082015181840152602081019050612656565b60008484015250505050565b600061268882612637565b6126928185612642565b93506126a2818560208601612653565b6126ab816124b2565b840191505092915050565b600073ffffffffffffffffffffffffffffffffffffffff82169050919050565b60006126e1826126b6565b9050919050565b6126f1816126d6565b82525050565b60006060820190508181036000830152612711818661267d565b90508181036020830152612725818561267d565b905061273460408301846126e8565b949350505050565b612745816126d6565b811461275057600080fd5b50565b6000813590506127628161273c565b92915050565b60006020828403121561277e5761277d61249e565b5b600061278c84828501612753565b91505092915050565b600080604083850312156127ac576127ab61249e565b5b600083013567ffffffffffffffff8111156127ca576127c96124a3565b5b6127d6858286016125c0565b925050602083013567ffffffffffffffff8111156127f7576127f66124a3565b5b612803858286016125c0565b9150509250929050565b6000819050919050565b6128208161280d565b82525050565b600060208201905061283b6000830184612817565b92915050565b60008115159050919050565b61285681612841565b811461286157600080fd5b50565b6000813590506128738161284d565b92915050565b600080604083850312156128905761288f61249e565b5b600061289e85828601612753565b92505060206128af85828601612864565b9150509250929050565b6128c281612841565b82525050565b600060808201905081810360008301526128e2818761267d565b90506128f160208301866126e8565b8181036040830152612903818561267d565b905061291260608301846128b9565b95945050505050565b600060c0820190508181036000830152612935818961267d565b905061294460208301886126e8565b8181036040830152612956818761267d565b90506129656060830186612817565b6129726080830185612817565b61297f60a08301846128b9565b979650505050505050565b600060c08201905081810360008301526129a4818961267d565b905081810360208301526129b8818861267d565b90506129c760408301876126e8565b6129d460608301866128b9565b6129e16080830185612817565b6129ee60a0830184612817565b979650505050505050565b60008060408385031215612a1057612a0f61249e565b5b6000612a1e85828601612753565b925050602083013567ffffffffffffffff811115612a3f57612a3e6124a3565b5b612a4b858286016125c0565b9150509250929050565b600080600060608486031215612a6e57612a6d61249e565b5b600084013567ffffffffffffffff811115612a8c57612a8b6124a3565b5b612a98868287016125c0565b9350506020612aa986828701612753565b925050604084013567ffffffffffffffff811115612aca57612ac96124a3565b5b612ad6868287016125c0565b9150509250925092565b600081905092915050565b6000612af682612637565b612b008185612ae0565b9350612b10818560208601612653565b80840191505092915050565b6000612b288284612aeb565b915081905092915050565b7f437573746f6d6572206973206e6f742070726573656e7420696e20746865206460008201527f6174616261736500000000000000000000000000000000000000000000000000602082015250565b6000612b8f602783612642565b9150612b9a82612b33565b604082019050919050565b60006020820190508181036000830152612bbe81612b82565b9050919050565b7f4e487b7100000000000000000000000000000000000000000000000000000000600052602260045260246000fd5b60006002820490506001821680612c0c57607f821691505b602082108103612c1f57612c1e612bc5565b5b50919050565b7f42616e6b206e6f7420666f756e64000000000000000000000000000000000000600082015250565b6000612c5b600e83612642565b9150612c6682612c25565b602082019050919050565b60006020820190508181036000830152612c8a81612c4e565b9050919050565b7f4e487b7100000000000000000000000000000000000000000000000000000000600052601160045260246000fd5b6000612ccb8261280d565b915060008203612cde57612cdd612c91565b5b600182039050919050565b7f4e6f7420612076616c69642062616e6b00000000000000000000000000000000600082015250565b6000612d1f601083612642565b9150612d2a82612ce9565b602082019050919050565b60006020820190508181036000830152612d4e81612d12565b9050919050565b60006020820190508181036000830152612d6f818461267d565b905092915050565b60008190508160005260206000209050919050565b60008154612d9981612bf4565b612da38186612642565b94506001821660008114612dbe5760018114612dd457612e07565b60ff198316865281151560200286019350612e07565b612ddd85612d77565b60005b83811015612dff57815481890152600182019150602081019050612de0565b808801955050505b50505092915050565b60006020820190508181036000830152612e2a8184612d8c565b905092915050565b7f437573746f6d657220697320616c72656164792070726573656e742c20706c6560008201527f6173652063616c6c206d6f64696679437573746f6d657220746f20656469742060208201527f74686520637573746f6d65722064617461000000000000000000000000000000604082015250565b6000612eb4605183612642565b9150612ebf82612e32565b606082019050919050565b60006020820190508181036000830152612ee381612ea7565b9050919050565b60006020601f8301049050919050565b600082821b905092915050565b600060088302612f377fffffffffffffffffffffffffffffffffffffffffffffffffffffffffffffffff82612efa565b612f418683612efa565b95508019841693508086168417925050509392505050565b6000819050919050565b6000612f7e612f79612f748461280d565b612f59565b61280d565b9050919050565b6000819050919050565b612f9883612f63565b612fac612fa482612f85565b848454612f07565b825550505050565b600090565b612fc1612fb4565b612fcc818484612f8f565b505050565b5b81811015612ff057612fe5600082612fb9565b600181019050612fd2565b5050565b601f8211156130355761300681612d77565b61300f84612eea565b8101602085101561301e578190505b61303261302a85612eea565b830182612fd1565b50505b505050565b600082821c905092915050565b60006130586000198460080261303a565b1980831691505092915050565b60006130718383613047565b9150826002028217905092915050565b61308a82612637565b67ffffffffffffffff8111156130a3576130a26124c3565b5b6130ad8254612bf4565b6130b8828285612ff4565b600060209050601f8311600181146130eb57600084156130d9578287015190505b6130e38582613065565b86555061314b565b601f1984166130f986612d77565b60005b82811015613121578489015182556001820191506020850194506020810190506130fc565b8683101561313e578489015161313a601f891682613047565b8355505b6001600288020188555050505b505050505050565b600061315e8261280d565b91507fffffffffffffffffffffffffffffffffffffffffffffffffffffffffffffffff82036131905761318f612c91565b5b600182019050919050565b7f42616e6b206973206e6f742070726573656e7420696e2074686520646174616260008201527f6173650000000000000000000000000000000000000000000000000000000000602082015250565b60006131f7602383612642565b91506132028261319b565b604082019050919050565b60006020820190508181036000830152613226816131ea565b9050919050565b7f637573746f6d657220696e206c69737400000000000000000000000000000000600082015250565b6000613263601083612642565b915061326e8261322d565b602082019050919050565b6000602082019050818103600083015261329281613256565b9050919050565b7f4e487b7100000000000000000000000000000000000000000000000000000000600052601260045260246000fd5b60006132d38261280d565b91506132de8361280d565b9250826132ee576132ed613299565b5b82820490509291505056fea2646970667358221220df935991ffcb7123c5a8e663abb1f2f9e71acdb52bd5d737d9f5cafebb73e7f164736f6c63430008120033",
  "linkReferences": {},
  "deployedLinkReferences": {}
}